S0160000617564696F5F737065637472756D2E737265632A
S11300000C94FA030C9417040C9417040C9417041E
S11300100C9417040C9417040C9417040C941704F0
S11300200C9417040C9417040C9417040C941704E0
S11300300C9417040C9417040C9417040C941704D0
S11300400C9417040C9417040C9417040C941704C0
S11300500C941704000000000000000000000000E1
S1130060000000000000000000000000000000008C
S11300700000000000050B10161C21272D32383D0E
S113008043494E545A5F656A70767B81878C929798
S11300909DA3A8AE000B16212D38434E5A65707BE4
S11300A087929DA8000B16212C38434E5A65707B0D
S11300B086929DA800102132435465768797A8053F
S11300C0162738495A6A7B8C9DAE0B1C2D3D4E5F1A
S11300D0708192A300162D435A70879D00162C43FD
S11300E05A70869D00162D435970869D00162D4327
S11300F05970879D001C3854708CA8102C49658158
S11301009D05213D597692AE16324E6A87A30B2780
S1130110435F7B970021436587A816385A7B9D0B64
S11301202D4E70920021436587A816385A7B9D0B8B
S11301302C4E709200274E769D10385F86AE214972
S113014070970B325981A81C436A92052C547BA3E7
S1130150163D658C002D5A87002C5A86002D598631
S1130160002D5987002C5A87B32C5986002D5A86A6
S1130170B32C5A870032659716497BAE2D5F9210D7
S11301804376A8275A8C0B3D70A321548605386A00
S11301909D1C4E81003870A82C659D215992164EE5
S11301A0870B437BB33870A82D659D215A92164E58
S11301B0860B437B003D7B0543810B4986104E8CA7
S11301C01654921C5997215F9D2765A32C6AA83267
S11301D070AE3876004387165A9D2D7000438716FB
S11301E05A9D2C70004386165A9D2C700043861627
S11301F0599D2D700049922770054E972D760B540A
S11302009D327B105AA33881165FA83D861C65AECB
S1130210438C216A004E9D388621700B59A8439265
S11302202C7B1665B34E9D388621700B59A84392DA
S11302302C7B16650054A8499D3D923287277B1C70
S1130240701065055AAE4EA34397388C2D812176E4
S1130250166A0B5F0000AE005C010B02B902670373
S11302601504C2046F051C06C80674071F08C908D4
S113027073091C0AC40A6B0B120CB70C5C0DFF0D3E
S1130280A20E430FE30F82101F11BB115612F0127E
S113029087131E14B3144615D7156716F51682175F
S11302A00C1895181B19A019231AA31A221B9F1B9B
S11302B0191C911C071D7B1DEC1D5B1EC81E321FE3
S11302C09A1FFF1F6220C22020217B21D4212A22D1
S11302D07D22CE221B236723AF23F52337247724E3
S11302E0B424EF2426255B258C25BB25E6250F2683
S11302F03526582678269426AE26C526D926E926FC
S1130300F726022709270E2710270E270927022779
S1130310F726E926D926C526AE2694267826582619
S113032035260F26E625BB258C255B252625EF24BF
S1130330B42477243724F523AF2367231B23CE2249
S11303407D222A22D4217B212021C2206220FF1F6A
S11303509A1F321FC81E5B1EEC1D7B1D071D911CBE
S1130360191C9F1B221BA31A231AA0191B199518C9
S11303700C188217F5166716D7154615B3141E14F4
S11303808713F0125612BB111F118210E30F430F93
S1130390A20EFF0D5C0DB70C120C6B0BC40A1C0AE9
S11303A07309C9081F087407C8061C066F05C20430
S11303B015046703B9020B025C01AE00000052FF92
S11303C0A4FEF5FD47FD99FCEBFB3EFB91FAE4F935
S11303D038F98CF8E1F737F78DF6E4F53CF595F448
S11303E0EEF349F3A4F201F25EF1BDF01DF07EEFED
S11303F0E1EE45EEAAED10ED79ECE2EB4DEBBAEA55
S113040029EA99E90BE97EE8F4E76BE7E5E660E6BB
S1130410DDE55DE5DEE461E4E7E36FE3F9E285E26F
S113042014E2A5E138E1CEE066E001E09EDF3EDFC4
S1130430E0DE85DE2CDED6DD83DD32DDE5DC99DC35
S113044051DC0BDCC9DB89DB4CDB11DBDADAA5DA46
S113045074DA45DA1ADAF1D9CBD9A8D988D96CD9A2
S113046052D93BD927D917D909D9FED8F7D8F2D808
S1130470F0D8F2D8F7D8FED809D917D927D93BD95B
S113048052D96CD988D9A8D9CBD9F1D91ADA45DA95
S113049074DAA5DADADA11DB4CDB89DBC9DB0BDCD5
S11304A051DC99DCE5DC32DD83DDD6DD2CDE85DE56
S11304B0E0DE3EDF9EDF01E066E0CEE038E1A5E16C
S11304C014E285E2F9E26FE3E7E361E4DEE45DE58B
S11304D0DDE560E6E5E66BE7F4E77EE80BE999E93C
S11304E029EABAEA4DEBE2EB78EC10EDAAED45EE21
S11304F0E1EE7EEF1DF0BDF05EF101F2A4F249F3EE
S1130500EEF395F43CF5E4F58DF637F7E1F78CF866
S113051038F9E4F991FA3EFBEBFB99FC47FDF5FD54
S1130520A4FE52FF10270E2709270227F726E926E3
S1130530D926C526AE2694267826582635260F2693
S1130540E625BB258C255B252625EF24B4247724BA
S11305503724F523AF2367231B23CE227D222A22AF
S1130560D4217B212021C2206220FF1F9A1F321F29
S1130570C81E5B1EEC1D7B1D071D911C191C9F1BB7
S1130580221BA31A231AA0191B1995180C188217D9
S1130590F5166716D7154615B3141E148813F012F2
S11305A05612BB111F118210E30F430FA20EFF0D51
S11305B05C0DB70C120C6B0BC40A1C0A7309C90836
S11305C01F087407C8061C066F05C20415046703D8
S11305D0B9020B025C01AE00000052FFA4FEF5FD5F
S11305E047FD99FCEBFB3EFB91FAE4F938F98CF8F2
S11305F0E1F737F78DF6E4F53CF595F4EEF349F3BE
S1130600A4F201F25EF1BDF01DF07EEFE1EE45EEE5
S1130610AAED10ED79ECE2EB4DEBBAEA29EA99E99F
S11306200BE97EE8F4E76BE7E5E660E6DDE55DE52A
S1130630DEE461E4E7E36FE3F9E285E214E2A5E1D5
S113064038E1CEE066E001E09EDF3EDFE0DE85DEFD
S11306502CDED6DD83DD32DDE5DC99DC51DC0BDC20
S1130660C9DB89DB4CDB11DBDADAA5DA74DA45DACB
S11306701ADAF1D9CBD9A8D988D96CD952D93BD9AE
S113068027D917D909D9FED8F7D8F2D8F0D8F2D893
S1130690F7D8FED809D917D927D93BD952D96CD95B
S11306A088D9A8D9CBD9F1D91ADA45DA74DAA5DA16
S11306B0DADA11DB4CDB89DBC9DB0BDC51DC99DCDE
S11306C0E5DC32DD83DDD6DD2CDE85DEE0DE3EDFFB
S11306D09EDF01E066E0CEE038E1A5E114E285E2C8
S11306E0F9E26FE3E7E361E4DEE45DE5DDE560E6BE
S11306F0E5E66BE7F4E77EE80BE999E929EABAEA6B
S11307004DEBE2EB78EC10EDAAED45EEE1EE7EEF79
S11307101DF0BDF05EF101F2A4F249F3EEF395F49D
S11307203CF5E4F58DF637F7E1F78CF838F9E4F9A0
S113073091FA3EFBEBFB99FC47FDF5FDA4FE52FF4D
S11307400000AE005C010B02B90267031504C20489
S11307506F051C06C80674071F08C90873091C0A1C
S1130760C40A6B0B120CB70C5C0DFF0DA20E430FE9
S1130770E30F82101F11BB115612F01288131E14BE
S1130780B3144615D7156716F51682170C18951865
S11307901B19A019231AA31A221B9F1B191C911C95
S11307A0071D7B1DEC1D5B1EC81E321F9A1FFF1FF9
S11307B06220C22020217B21D4212A227D22CE2224
S11307C01B236723AF23F52337247724B424EF2492
S11307D026255B258C25BB25E6250F2635265826A0
S11307E078269426AE26C526D926E926F72602279A
S11307F009270E2711241FBECFE5D8E0DEBFCDBFE9
S113080013E0A0E6B0E0E8E7F1E102C005900D9244
S1130810A83AB107D9F726E0A8EAB3E001C01D92CF
S1130820AB3CB207E1F70E943B070C94BA080C9466
S113083000002F923F924F925F926F927F928F921D
S11308409F92AF92BF92CF92DF92EF92FF920F935B
S11308501F93CF93DF93CDB7DEB72C970FB6F894E1
S1130860DEBF0FBECDBF0BE416E084E590E09A87AF
S113087089870F2EFBE32F2EF6E03F2EF02D0F2E4F
S1130880FBEBCF2EF5E0DF2EF02DE984FA840F8305
S11308901887F7016490F60181919191A191B1912A
S11308A06F018B839C83AD83BE83712CC301880F3E
S11308B0991F880F991F9C878B87FC01EC5DFA4F69
S11308C0A591B4919F819983E885EA832B813C812A
S11308D04D815E810E947608D8018D909D90AD90E7
S11308E0BC90860E971EA81EB91EF80180829182C4
S11308F0A282B382EB85FC85EC5AFD4FA591B4919D
S113090050954095309521953F4F4F4F5F4F0E9432
S11309107608D80114964D905D906D907C90179751
S1130920460E571E681E791EF8014482558266825F
S11309307782FFEFEF1AFF0AC214D30409F0A9CF9C
S1130940C501B40120E032EE44E050E00E945708B3
S1130950A981BA812D933D934D935C931397C30161
S1130960B20120E032EE44E050E00E945708E981F1
S1130970FA812483358346835783085F1F4F898513
S11309809A8580969A87898796E00B3C190709F027
S113099076CF2C960FB6F894DEBF0FBECDBFDF9195
S11309A0CF911F910F91FF90EF90DF90CF90BF9068
S11309B0AF909F908F907F906F905F904F903F90FB
S11309C02F90089540E050E0E3E4F6E080E02291C7
S11309D030E04217530710F448BB82BB9AE69A955D
S11309E0F1F700C08F5F883091F7EBE4F6E02291D5
S11309F030E04217530710F448BB82BB9AE69A953D
S1130A00F1F700C08F5F803191F785E38A95F1F7A4
S1130A1000004F5F5F4F40315105B1F608951092C9
S1130A20BA051092B9058FEF9FEF9093B8058093A4
S1130A30B70588EC90E09093B6058093B5051092C5
S1130A40B4051092B3051092B2051092B10510923C
S1130A50B0051092AF0508950F931F93CF93DF93C2
S1130A60CDB7DEB7D2500FB6F894DEBF0FBECDBF00
S1130A7080E092E0E8EAF1E0DE01119601900D9247
S1130A800197E1F747E050E0A9EAB3E027E130E05D
S1130A9008E010E080B38093A80384FF07C083E0DC
S1130AA090E09093A7018093A60180C085FF09C0C0
S1130AB00E940F0582E090E09093A7018093A60125
S1130AC075C01092AC031092AB031092AA0310925B
S1130AD0A90380E090E06091AB037091AC03FA014C
S1130AE0E81BF90BCF01FB01E295F295F07FFE279D
S1130AF0E07FFE27E80FF91FEE0FFF1F81E090E073
S1130B008C0F9D1FE80FF91F80819181019719F4C3
S1130B1068BB8C9182BB8091A9039091AA03019632
S1130B209093AA038093A90388309105A0F20093BF
S1130B30A9031093AA03802F912F6091AB037091A6
S1130B40AC03F901E81BF90BCF01FB01E295F29527
S1130B50F07FFE27E07FFE27E80FF91FEE0FFF1F4F
S1130B6081E090E08C0F9D1FE80FF91F8081918137
S1130B70019719F468BB8C9182BB8091A903909171
S1130B80AA0301969093AA038093A9038031910547
S1130B90A0F28091AB039091AC0301969093AC03C7
S1130BA08093AB03409708F490CF74CFDE5F0FB609
S1130BB0F894DEBF0FBECDBFDF91CF911F910F918F
S1130BC008958091B7059091B805019680319105FB
S1130BD029F09093B8058093B70516C01092B80514
S1130BE01092B70581E090E09093B0058093AF0533
S1130BF08091B5059091B6058D33910528F00A973B
S1130C009093B6058093B5058091B7059091B8058A
S1130C1008958091B9059091BA058630910539F40B
S1130C2021E030E03093B4052093B3050EC0009763
S1130C3029F41092B4051092B3050DC02091B305A8
S1130C403091B4052130310531F401979093BA0500
S1130C508093B90505C001969093BA058093B905B0
S1130C608091B9059091BA0508958091B10590914C
S1130C70B20501969093B2058093B10508952F9221
S1130C803F924F925F926F927F928F929F92AF9218
S1130C90BF92CF92DF92EF92FF920F931F93CF9365
S1130CA0DF933A010091AF051091B0059C01220F2A
S1130CB0331F820F931F880F991F9C012A5B3E4F9D
S1130CC07901EDEAF3E05B01AA0CBB1CAA0CBB1C86
S1130CD0AA0CBB1CAA0CBB1CAA0CBB1CD501AA5990
S1130CE0BF4F0F2EFDE0CF2EF4E0DF2EF02D992420
S1130CF09394812C22242394312C512C412CE701F0
S1130D00699179917E01AF01405E5F4F81E090E08F
S1130D109B0128233923232B09F469C02D913C918D
S1130D20119728233923232B19F4318220820CC0F4
S1130D30318220820130110539F4052D142D952CB2
S1130D40842C02C011821082880F991F3296E417F6
S1130D50F507F1F61296FA01C416D50681F610933A
S1130D60B0050093AF05B50164597F4F4DE254E0DF
S1130D700DEA15E0C1E0D0E0FB01A191B191BF0102
S1130D80FA01B09781E090E09D0128233923232BB9
S1130D9019F0D183C08302C011821082880F991F79
S1130DA032964E175F0781F7405E5F4F4017510739
S1130DB019F7F301EE0FFF1FE05AFF4F40815181F5
S1130DC0EDE8F5E081E090E061E070E09A0128232D
S1130DD03923232B19F07183608302C0118210829E
S1130DE0880F991F3296E017F10781F709C02D91FA
S1130DF03C91119728233923232B09F4A3CF95CFB2
S1130E00892D982DDF91CF911F910F91FF90EF9035
S1130E10DF90CF90BF90AF909F908F907F906F9016
S1130E205F904F903F902F9008958091B5059091D9
S1130E30B605892BF9F060E070E04DEA53E090E0EC
S1130E40FA0180E0219131912130310511F498BBF0
S1130E5082BB8F5F8031B1F7405E5F4F9F5F9031FF
S1130E6079F76F5F7F4F8091B5059091B60568174C
S1130E70790718F308958FE087BB81BB80EC87B9AD
S1130E8082E886B989E08EBD83E690E09BBD8ABD89
S1130E9066246394712C0F2EFBEC2F2EF6E03F2E6C
S1130EA0F02D6894992494F86894CC24C4F8D12C37
S1130EB00F2EFBE3EF2EF6E0FF2EF02D6894AA240C
S1130EC0A1F8B12C03E010E080B38093A80384FF61
S1130ED005C01093A7010093A6011EC085FF14C08E
S1130EE08091A6019091A701029719F00E940F0525
S1130EF006C00E9409069093AE058093AD05B0929A
S1130F00A701A092A60199C08091A6019091A70182
S1130F108330910509F08EC01DBC1CBC88B780616C
S1130F2088BF1092AC031092AB0308B604FEFDCF49
S1130F30369A349A84B145B190E02091AB03309154
S1130F40AC03942B092E000CAA0BBB0BBB2364F03F
S1130F50220F331F220F331FF901E554FA4F808308
S1130F609183A283B38316C0220F331F220F331F32
S1130F70F901E554FA4FB095A095909581959F4F4E
S1130F80AF4FBF4F880F991FAA1FBB1F8083918348
S1130F90A283B38388B7806188BF8091AB039091AB
S1130FA0AC0301969093AC038093AB03809708F451
S1130FB0BCCF0E941904E3E5F6E0ABE3B6E0EF0131
S1130FC0408151816281738177235CF470956095CF
S1130FD0509541955F4F6F4F7F4F4083518362839C
S1130FE073834C815D816E817F8177235CF470957E
S1130FF06095509541955F4F6F4F7F4F4C835D8354
S11310006E837F8398818C81890F86958695813143
S113101010F09C9201C08C9338961196E215F3055A
S113102071F6D092AC03C092AB03F70117860E940D
S1131030E2044ACF82309105A1F50E94E1052C011A
S11310408091B9059091BA05892B31F00E94090667
S11310509093AE058093AD054091B1055091B205D2
S11310606091AD057091AE05C2010E943F06892BC7
S113107071F40E9435069093B2058093B1050397ED
S113108031F47092A7016092A6010E942C05809110
S1131090A6019091A701029709F016CF0E941507A7
S11310A013CF019709F010CF0E942C050DCF052E08
S11310B097FB1EF400940E946E0857FD07D00E940F
S11310C07E0807FC03D04EF40C946E0850954095AE
S11310D0309521953F4F4F4F5F4F089590958095E0
S11310E0709561957F4F8F4F9F4F0895B7FF0C9474
S11310F0A0080E94A008821B930B0895A1E21A2E57
S1131100AA1BBB1BFD010DC0AA1FBB1FEE1FFF1FA7
S1131110A217B307E407F50720F0A21BB30BE40BF7
S1131120F50B661F771F881F991F1A9469F760953E
S11311307095809590959B01AC01BD01CF010895F8
S11311400E94AB08A59F900DB49F900DA49F800DA5
S1131150911D11240895A29FB001B39FC001A39FC4
S1131160700D811D1124911DB29F700D811D1124DC
S10B1170911D0895F894FFCFCE
S1131178E000C0008000001C001C00080000000003
S11311880000000000000000000000000000000053
S11311980000000000000000001C001C0008000003
S11311A80000000000000000000000000000000033
S11311B800000000000000000000001C001C0008E3
S11311C80000000000000000000000000000000013
S11311D8000000000000000000000000001C001CCB
S11311E800080000000000000000000000000000EB
S11311F80000000000000000000000000000001CC7
S1131208001C0008000000000000000000000000AE
S113121800000000000000000000000000000000C2
S1131228001C001C00080000000000000000000072
S113123800000000000000000000000000000000A2
S11312480000001C001C0008000000000000000052
S1131258000000000000E000E000E0007000700002
S113126870003800380038001C001C001C000E00F8
S11312780E000E00070007000700038003800380A8
S113128801C001C001C000E000E000E0007000708F
S11312980070003800380038001C001C001C000EC8
S11312A8000E000E00070007000780038003800378
S11312B8C001C001C00101000000000000000000DE
S11312C80000000000000000000000000000000012
S11312D80000000000000000000000000000000002
S11312E800000000000000000000000000000000F2
S11312F800000000000000000000010001000000E0
S113130800000100010000000100000000000000CE
S113131801000100010001000100000000000100BB
S113132801000000000001000100000000000000AE
S1131338010001000000000001000000000000009E
S1131348010000000000010001000000010000008D
S1131358010001000100010001000000000001007B
S1131368010000000000010001000100000001006C
S1131378010001000000000000000100010000005D
S1131388000001000100000001000000000000004E
S1131398010001000100010000000000000000003D
S11313A80000000000000000000000000000000031
S11313B80000000000000000000000000000000021
S11313C80000000000000000000000000000000011
S11313D80000000000000000000000000000000001
S11313E800000000000000000000000000000000F1
S11313F800000000000000000000010000000100DF
S113140800000000010001000100010000000100CB
S113141801000100010000000100000001000000BB
S113142801000000010000000000000000000100AD
S1131438000000000000000001000000000000009F
S1131448010000000100010001000100000001008A
S1131458000000000000000001000000000000007F
S1131468010000000100000000000000000001006D
S1131478000000000000000001000000000000005F
S1131488010000000100010001000100000001004A
S11314980000000000000000000000000000000040
S11314A80000000000000000000000000000000030
S10B14B8000000000000000028
S9030000FC
